:1000000071C0000086C0000084C0000082C00000F3
:1000100080C000007EC000007CC000007AC00000EC
:1000200078C0000076C0000074C0000072C00000FC
:1000300070C000006EC000006CC000006AC000000C
:1000400068C0000066C0000064C0000062C000001C
:1000500060C000005EC000005CC000005AC000002C
:1000600058C0000056C0000054C0000052C000003C
:1000700050C000004EC000004CC000004AC000004C
:1000800048C0000046C0000044C0000042C000005C
:1000900040C000003EC000003CC000003AC000006C
:1000A00038C0000036C0000034C0000032C000007C
:1000B00030C000002EC000002CC000002AC000008C
:1000C00028C0000026C0000024C0000022C000009C
:1000D00020C000001EC000001CC000001AC00000AC
:1000E00018C0000011241FBECFEFD1E2DEBFCDBF8C
:1000F00000E00CBF12E0A0E0B2E0ECE6FBE000E0C4
:100100000BBF02C007900D92A830B107D9F79FD05E
:100110002BC576CFECE7F0E0808180648083EAE74E
:10012000F0E08081876880830895ECE7F0E09081BB
:10013000907F8F70892B8083EAE7F0E08081806474
:10014000808380917A0086FDFCCF80917800909129
:10015000790008951092C50087E68093C40088E175
:100160008093C10086E08093C2000895CF92DF9211
:10017000EF92FF920F931F93CF93DF93CDB7DEB72C
:1001800069970FB6F894DEBF0FBECDBF8B01BC01DF
:1001900080E090E00FD120E030EC4FE754E471D0E4
:1001A00020E030E048EC52E493D16B017C01B801CF
:1001B00080E090E0FFD020E030EC4FE754E461D0E5
:1001C00020E030E048EC52E483D12091C00025FFCC
:1001D000FCCFBFD0162F072FC701B601BAD00F939F
:1001E0001F937F936F9380E092E09F938F931F9272
:1001F00089E18F93CE0101969F938F93CCD10FB657
:10020000F894DEBF0FBECDBF20E030E0E1E0F0E0CB
:10021000EC0FFD1FE20FF31F8081882349F08093CC
:10022000C6008091C00085FFFCCF2F5F3F4FEECF0F
:1002300069960FB6F894DEBF0FBECDBFDF91CF91A8
:100240001F910F91FF90EF90DF90CF90089562DFA4
:1002500081DF80E06ADFEC0181E067DF2FEF33E0D0
:10026000B901681B790BC9018C1B9D0B7FDF2FEF38
:1002700083ED90E3215080409040E1F700C0000002
:10028000E8CF0CD0EBC0E3D040F0DAD030F021F46E
:100290005F3F19F0CCC0511115C1CFC0F0D098F319
:1002A0009923C9F35523B1F3951B550BBB27AA27F7
:1002B00062177307840738F09F5F5F4F220F331F69
:1002C000441FAA1FA9F333D00E2E3AF0E0E830D035
:1002D00091505040E695001CCAF729D0FE2F27D038
:1002E000660F771F881FBB1F261737074807AB0706
:1002F000B0E809F0BB0B802DBF01FF2793585F4F7B
:100300002AF09E3F510568F092C0DCC05F3FECF3DD
:10031000983EDCF3869577956795B795F7959F5F3F
:10032000C9F7880F911D9695879597F90895E1E093
:10033000660F771F881FBB1F621773078407BA07F2
:1003400020F0621B730B840BBA0BEE1F88F7E0954D
:10035000089504D06894B111B5C0089598D088F07C
:100360009F5790F0B92F9927B751A0F0D1F0660FA1
:10037000771F881F991F1AF0BA95C9F712C0B130BC
:1003800081F09FD0B1E008959CC0672F782F882717
:10039000B85F39F0B93FCCF3869577956795B395FB
:1003A000D9F73EF490958095709561957F4F8F4F6A
:1003B0009F4F0895E89409C097FB3EF4909580956F
:1003C000709561957F4F8F4F9F4F9923A9F0F92F1B
:1003D00096E9BB279395F695879577956795B79599
:1003E000F111F8CFFAF4BB0F11F460FF1BC06F5F7F
:1003F0007F4F8F4F9F4F16C0882311F096E911C091
:10040000772321F09EE8872F762F05C0662371F0B1
:1004100096E8862F70E060E02AF09A95660F771FC5
:10042000881FDAF7880F9695879597F9089597F9B9
:100430009F6780E870E060E008959FEF80EC08958A
:1004400000240A94161617061806090608950024B3
:100450000A9412161306140605060895092E03942D
:10046000000C11F4882352F0BB0F40F4BF2B11F4A1
:1004700060FF04C06F5F7F4F8F4F9F4F089557FD00
:100480009058440F551F59F05F3F71F04795880F02
:1004900097FB991F61F09F3F79F087950895121699
:1004A00013061406551FF2CF4695F1DF08C0161645
:1004B00017061806991FF1CF8695710561050894F6
:1004C0000895E894BB2766277727CB0197F908950D
:1004D0000BD0C4CFB5DF28F0BADF18F0952309F0B0
:1004E000A6CFABCF1124EECFCADFA0F3959FD1F3F7
:1004F000950F50E0551F629FF001729FBB27F00DD2
:10050000B11D639FAA27F00DB11DAA1F649F662726
:10051000B00DA11D661F829F2227B00DA11D621F75
:10052000739FB00DA11D621F839FA00D611D221F2F
:10053000749F3327A00D611D231F849F600D211D13
:10054000822F762F6A2F11249F5750408AF0E1F0B6
:1005500088234AF0EE0FFF1FBB1F661F771F881FFF
:1005600091505040A9F79E3F510570F060CFAACF3F
:100570005F3FECF3983EDCF3869577956795B795EA
:10058000F795E7959F5FC1F7FE2B880F911D969514
:10059000879597F908950F931F93CF93DF93CDB766
:1005A000DEB72E970FB6F894DEBF0FBECDBF0E8913
:1005B0001F89888D998D26E02C831A83098397FFE4
:1005C00002C080E090E801979E838D83AE01445E77
:1005D0005F4F6A8D7B8DCE01019619D04D815E8172
:1005E00057FD0AC02F813885421753070CF49A0132
:1005F000F801E20FF31F10822E960FB6F894DEBFBB
:100600000FBECDBFDF91CF911F910F9108952F9213
:100610003F924F925F926F927F928F929F92AF9292
:10062000BF92CF92DF92EF92FF920F931F93CF93DF
:10063000DF93CDB7DEB72B970FB6F894DEBF0FBEB2
:10064000CDBF6C017B018A01FC0117821682838178
:1006500081FFBFC1CE0101963C01F6019381F701F4
:1006600093FD859193FF81917F01882309F4ADC1AA
:10067000853239F493FD859193FF81917F01853215
:1006800021F4B60190E0D6D1E8CF912C212C312C69
:10069000FFE1F315D8F08B3279F038F4803279F03D
:1006A0008332A1F4232D20611DC08D3261F080338F
:1006B00069F4232D216016C0832D8260382EE32D2E
:1006C000E4603E2E2AC0F32DF8601DC037FC2DC01B
:1006D00020ED280F2A3040F08E32B9F436FC75C177
:1006E000232D2064322E19C036FE06C08AE0989E63
:1006F000200D1124922E11C0EAE02E9E200D11240F
:10070000222EF32DF0623F2E08C08C3621F4832D6B
:100710008068382E02C0883641F4F70193FD859138
:1007200093FF81917F018111B3CF982F9F7D9554C5
:10073000933028F40C5F1F4F9FE399830DC08336DD
:1007400031F0833771F0833509F055C020C0F801CE
:10075000808189830E5F1F4F88248394912C5301DD
:1007600012C02801F2E04F0E511CF801A080B180A8
:1007700036FE03C0692D70E002C06FEF7FEFC50148
:100780004ED14C018201F32DFF773F2E15C0280179
:1007900022E0420E511CF801A080B18036FE03C059
:1007A000692D70E002C06FEF7FEFC5012DD14C01C4
:1007B000F32DF0683F2E820133FC19C0822D90E0AA
:1007C00088169906A0F4B60180E290E033D12A940D
:1007D000F5CFF50137FC859137FE81915F01B601B8
:1007E00090E028D121102A9421E0821A91088114E6
:1007F000910479F7E1C0843611F0893639F5F801B2
:1008000037FE07C060817181828193810C5F1F4F29
:1008100008C060817181072E000C880B990B0E5F58
:100820001F4FF32DFF763F2E97FF09C090958095BF
:10083000709561957F4F8F4F9F4FF0683F2E2AE054
:1008400030E0A30133D1882E861844C0853731F4B7
:10085000232D2F7EB22E2AE030E025C0932D997FE4
:10086000B92E8F36C1F018F4883579F0AEC08037D4
:1008700019F0883721F0A9C0E92FE061BE2EB4FE3F
:100880000DC0FB2DF460BF2E09C034FE0AC0292F15
:100890002660B22E06C028E030E005C020E130E03E
:1008A00002C020E132E0F801B7FE07C0608171812B
:1008B000828193810C5F1F4F06C06081718180E04F
:1008C00090E00E5F1F4FA301F1D0882E8618FB2DFC
:1008D000FF773F2E36FE0DC0232D2E7FA22E8914CA
:1008E00058F434FE0BC032FC09C0832D8E7EA82E36
:1008F00005C0B82CA32C03C0B82C01C0B92CA4FE91
:100900000FC0FE01E80DF11D8081803321F49A2D86
:10091000997EA92E09C0A2FE06C0B394B39404C068
:100920008A2D867809F0B394A3FC10C0A0FE06C0FF
:10093000B21480F4280C922C9B180DC0B21458F4F9
:10094000B60180E290E076D0B394F8CFB21418F4F8
:100950002B1802C0982C212CA4FE0FC0B60180E3F6
:1009600090E068D0A2FE16C0A1FC03C088E790E02A
:1009700002C088E590E0B6010CC08A2D867851F05F
:10098000A1FE02C08BE201C080E2A7FC8DE2B601AD
:1009900090E050D0891430F4B60180E390E04AD062
:1009A0009A94F8CF8A94F301E80DF11D8081B60185
:1009B00090E040D08110F6CF222009F44ECEB6014F
:1009C00080E290E037D02A94F7CFF60186819781B4
:1009D00002C08FEF9FEF2B960FB6F894DEBF0FBECD
:1009E000CDBFDF91CF911F910F91FF90EF90DF90DE
:1009F000CF90BF90AF909F908F907F906F905F90BF
:100A00004F903F902F900895FC01059061507040E9
:100A10000110D8F7809590958E0F9F1F0895FC01C7
:100A20006150704001900110D8F7809590958E0F1D
:100A30009F1F08950F931F93CF93DF93FB01238193
:100A400021FD03C08FEF9FEF2CC022FF16C046810F
:100A50005781248135814217530744F4A081B18125
:100A60009D012F5F3F4F318320838C9326813781F7
:100A70002F5F3F4F3783268314C08B01EC01FB01AE
:100A80000084F185E02D1995892BE1F6D8011696A1
:100A90008D919C911797019617969C938E9316971C
:100AA000CE01DF91CF911F910F910895FA01AA27EE
:100AB000283051F1203181F1E8946F936E7F6E5FA1
:100AC0007F4F8F4F9F4FAF4FB1E03ED0B4E03CD04F
:100AD000670F781F891F9A1FA11D680F791F8A1F32
:100AE000911DA11D6A0F711D811D911DA11D20D099
:100AF00009F468943F912AE0269F11243019305D53
:100B00003193DEF6CF010895462F4770405D419343
:100B1000B3E00FD0C9F7F6CF462F4F70405D4A3390
:100B200018F0495D31FD4052419302D0A9F7EACF58
:100B3000B4E0A6959795879577956795BA95C9F787
:100B400000976105710508959B01AC010A2E06947A
:100B50005795479537952795BA95C9F7620F731F33
:0C0B6000841F951FA01D0895F894FFCF7E
:080B6C0025642C25640A000039
:00000001FF
