S0130000506C616E746555534152542E737265631E
S113000071C0000079C0000077C0000075C0000016
S113001073C0000071C000006FC000006DC000001C
S11300206BC0000069C0000067C0000065C000002C
S113003063C0000061C000005FC000005DC000003C
S11300405BC0000059C0000057C0000055C000004C
S113005053C0000051C000004FC000004DC000005C
S11300604BC0000066C0000047C0000045C000004F
S113007043C0000041C000003FC000003DC000007C
S11300803BC0000039C0000037C0000035C000008C
S113009033C0000031C000002FC000002DC000009C
S11300A02BC0000029C0000027C0000025C00000AC
S11300B023C0000021C000001FC000001DC00000BC
S11300C01BC0000019C0000017C0000015C00000CC
S11300D013C0000011C000000FC000000DC00000DC
S11300E00BC0000011241FBECFEFD1E2DEBFCDBF95
S11300F000E00CBF47D04BC083CF9091C00095FF68
S1130100FCCF8093C60008959093C5008093C400EB
S1130110E1ECF0E088E1808386E08093C200808196
S11301208068808388E4E9DF89E6E7DF8AE0E5CF59
S113013008951F920F920FB60F9211240BB60F92CF
S11301402F933F934F935F936F937F938F939F93DB
S1130150AF93BF93EF93FF938091C600CEDFFF91DF
S1130160EF91BF91AF919F918F917F916F915F912B
S11301704F913F912F910F900BBE0F900FBE0F9098
S11301801F90189589E190E0BFDF7894FFCFF89431
S1050190FFCF9B
S9030000FC
