:1000000071C0000086C0000084C0000082C00000F3
:1000100080C000007EC000007CC000007AC00000EC
:1000200078C0000076C0000074C0000072C00000FC
:1000300070C000006EC000006CC000006AC000000C
:1000400068C0000066C0000064C0000062C000001C
:1000500091C000005EC000005CC000005AC00000FB
:1000600058C0000056C0000054C0000052C000003C
:1000700050C00000B2C000004CC000004AC00000E8
:1000800048C0000046C0000044C0000042C000005C
:1000900040C000003EC000003CC000003AC000006C
:1000A00038C0000036C0000034C0000032C000007C
:1000B00030C000002EC000002CC000002AC000008C
:1000C00028C0000026C0000024C0000022C000009C
:1000D00020C000001EC000001CC000001AC00000AC
:1000E00018C0000011241FBECFEFD1E2DEBFCDBF8C
:1000F00000E00CBF12E0A0E0B2E0E6E1F4E000E0D6
:100100000BBF02C007900D92A830B107D9F795D068
:1001100080C176CF8FEF81BB8FEA80937A0086E033
:1001200080937B0081E480937C0008958CED9BE0BC
:1001300090938500809384001092800083E08093E8
:100140008100EFE6F0E080818160808308958FEF89
:1001500084B915B80895883060F421E030E0A90131
:1001600002C0440F551F8A95E2F7CA0193B189274F
:1001700085B908951F920F920FB60F9211240BB6F6
:100180000F922F933F934F935F936F937F938F9330
:100190009F93AF93BF93EF93FF9384E6B7D08CED1B
:1001A0009BE0909385008093840081E0D4DF86B348
:1001B000816086BBFF91EF91BF91AF919F918F912D
:1001C0007F916F915F914F913F912F910F900BBE57
:1001D0000F900FBE0F901F9018951F920F920FB6A1
:1001E0000F9211240BB60F922F933F934F935F936F
:1001F0006F937F938F939F93AF93BF93EF93FF93EF
:1002000080E092E08AD0809178009091790091D03E
:100210008DE07CD0FF91EF91BF91AF919F918F9135
:100220007F916F915F914F913F912F910F900BBEF6
:100230000F900FBE0F901F90189521E048E060E8E6
:1002400075E280E090E00ED065DF70DF80DF80E255
:100250005DD056D08823D9F38091780090917900B1
:1002600068D0F5CF0F931F93522F8B019C010C5236
:10027000114021093109053D104C2140310518F08C
:1002800080E090E0C6D04550443018F080E090E027
:10029000C0D0440F4093C20028E12093C1005523F1
:1002A00029F0E1ECF0E0208120682083DC01CB0123
:1002B000880F991FAA1FBB1F880F991FAA1FBB1F5A
:1002C0009C01AD01220F331F441F551F220F331F06
:1002D000441F551F60E074E284EF90E045D0215048
:1002E00031093093C5002093C4001F910F910895E8
:1002F0008091C000882314F481E0089580E008957F
:10030000F7DF8823E9F38091C60008959091C0003B
:1003100095FFFCCF8093C6000895CF93DF93EC0147
:1003200002C0F4DF219688818111FBCFDF91CF914C
:100330000895CF93DF93CDB7DEB727970FB6F89424
:10034000DEBF0FBECDBF4AE0BE016F5F7F4F2ED034
:10035000CE010196E2DF27960FB6F894DEBF0FBEFE
:10036000CDBFDF91CF910895A1E21A2EAA1BBB1B2E
:10037000FD010DC0AA1FBB1FEE1FFF1FA217B30771
:10038000E407F50720F0A21BB30BE40BF50B661F87
:10039000771F881F991F1A9469F76095709580954B
:1003A00090959B01AC01BD01CF010895BB274A3058
:1003B00031F4992322F4BDE2909581959F4F01C0BD
:1003C000BB27FB015527AA27880F991FAA1FA4172F
:1003D00010F0A41B83955051B9F7A05DAA3308F023
:1003E000A95DA193009779F7B111B1931192CB0157
:1003F00000C0DC01FC01672F71917723E1F7329790
:1004000004C07C916D9370836291AE17BF07C8F3EF
:060410000895F894FFCFEF
:0804160041444330203D200069
:00000001FF
